{
  "contractName": "Governor",
  "abi": [
    {
      "inputs": [
        {
          "internalType": "address",
          "name": "timelock_",
          "type": "address"
        },
        {
          "internalType": "address",
          "name": "syx_",
          "type": "address"
        },
        {
          "internalType": "address",
          "name": "guardian_",
          "type": "address"
        }
      ],
      "payable": false,
      "stateMutability": "nonpayable",
      "type": "constructor"
    },
    {
      "anonymous": false,
      "inputs": [
        {
          "indexed": false,
          "internalType": "uint256",
          "name": "id",
          "type": "uint256"
        }
      ],
      "name": "ProposalCanceled",
      "type": "event"
    },
    {
      "anonymous": false,
      "inputs": [
        {
          "indexed": false,
          "internalType": "uint256",
          "name": "id",
          "type": "uint256"
        },
        {
          "indexed": false,
          "internalType": "address",
          "name": "proposer",
          "type": "address"
        },
        {
          "indexed": false,
          "internalType": "address[]",
          "name": "targets",
          "type": "address[]"
        },
        {
          "indexed": false,
          "internalType": "uint256[]",
          "name": "values",
          "type": "uint256[]"
        },
        {
          "indexed": false,
          "internalType": "string[]",
          "name": "signatures",
          "type": "string[]"
        },
        {
          "indexed": false,
          "internalType": "bytes[]",
          "name": "calldatas",
          "type": "bytes[]"
        },
        {
          "indexed": false,
          "internalType": "uint256",
          "name": "startBlock",
          "type": "uint256"
        },
        {
          "indexed": false,
          "internalType": "uint256",
          "name": "endBlock",
          "type": "uint256"
        },
        {
          "indexed": false,
          "internalType": "string",
          "name": "description",
          "type": "string"
        }
      ],
      "name": "ProposalCreated",
      "type": "event"
    },
    {
      "anonymous": false,
      "inputs": [
        {
          "indexed": false,
          "internalType": "uint256",
          "name": "id",
          "type": "uint256"
        }
      ],
      "name": "ProposalExecuted",
      "type": "event"
    },
    {
      "anonymous": false,
      "inputs": [
        {
          "indexed": false,
          "internalType": "uint256",
          "name": "id",
          "type": "uint256"
        },
        {
          "indexed": false,
          "internalType": "uint256",
          "name": "eta",
          "type": "uint256"
        }
      ],
      "name": "ProposalQueued",
      "type": "event"
    },
    {
      "anonymous": false,
      "inputs": [
        {
          "indexed": false,
          "internalType": "address",
          "name": "voter",
          "type": "address"
        },
        {
          "indexed": false,
          "internalType": "uint256",
          "name": "proposalId",
          "type": "uint256"
        },
        {
          "indexed": false,
          "internalType": "bool",
          "name": "support",
          "type": "bool"
        },
        {
          "indexed": false,
          "internalType": "uint256",
          "name": "votes",
          "type": "uint256"
        }
      ],
      "name": "VoteCast",
      "type": "event"
    },
    {
      "constant": true,
      "inputs": [],
      "name": "BALLOT_TYPEHASH",
      "outputs": [
        {
          "internalType": "bytes32",
          "name": "",
          "type": "bytes32"
        }
      ],
      "payable": false,
      "stateMutability": "view",
      "type": "function"
    },
    {
      "constant": true,
      "inputs": [],
      "name": "DOMAIN_TYPEHASH",
      "outputs": [
        {
          "internalType": "bytes32",
          "name": "",
          "type": "bytes32"
        }
      ],
      "payable": false,
      "stateMutability": "view",
      "type": "function"
    },
    {
      "constant": true,
      "inputs": [],
      "name": "guardian",
      "outputs": [
        {
          "internalType": "address",
          "name": "",
          "type": "address"
        }
      ],
      "payable": false,
      "stateMutability": "view",
      "type": "function"
    },
    {
      "constant": true,
      "inputs": [
        {
          "internalType": "address",
          "name": "",
          "type": "address"
        }
      ],
      "name": "latestProposalIds",
      "outputs": [
        {
          "internalType": "uint256",
          "name": "",
          "type": "uint256"
        }
      ],
      "payable": false,
      "stateMutability": "view",
      "type": "function"
    },
    {
      "constant": true,
      "inputs": [],
      "name": "name",
      "outputs": [
        {
          "internalType": "string",
          "name": "",
          "type": "string"
        }
      ],
      "payable": false,
      "stateMutability": "view",
      "type": "function"
    },
    {
      "constant": true,
      "inputs": [],
      "name": "proposalCount",
      "outputs": [
        {
          "internalType": "uint256",
          "name": "",
          "type": "uint256"
        }
      ],
      "payable": false,
      "stateMutability": "view",
      "type": "function"
    },
    {
      "constant": true,
      "inputs": [
        {
          "internalType": "uint256",
          "name": "",
          "type": "uint256"
        }
      ],
      "name": "proposals",
      "outputs": [
        {
          "internalType": "uint256",
          "name": "id",
          "type": "uint256"
        },
        {
          "internalType": "address",
          "name": "proposer",
          "type": "address"
        },
        {
          "internalType": "uint256",
          "name": "eta",
          "type": "uint256"
        },
        {
          "internalType": "uint256",
          "name": "startBlock",
          "type": "uint256"
        },
        {
          "internalType": "uint256",
          "name": "endBlock",
          "type": "uint256"
        },
        {
          "internalType": "uint256",
          "name": "forVotes",
          "type": "uint256"
        },
        {
          "internalType": "uint256",
          "name": "againstVotes",
          "type": "uint256"
        },
        {
          "internalType": "bool",
          "name": "canceled",
          "type": "bool"
        },
        {
          "internalType": "bool",
          "name": "executed",
          "type": "bool"
        }
      ],
      "payable": false,
      "stateMutability": "view",
      "type": "function"
    },
    {
      "constant": true,
      "inputs": [],
      "name": "syx",
      "outputs": [
        {
          "internalType": "contract SyxInterface",
          "name": "",
          "type": "address"
        }
      ],
      "payable": false,
      "stateMutability": "view",
      "type": "function"
    },
    {
      "constant": true,
      "inputs": [],
      "name": "timelock",
      "outputs": [
        {
          "internalType": "contract TimelockInterface",
          "name": "",
          "type": "address"
        }
      ],
      "payable": false,
      "stateMutability": "view",
      "type": "function"
    },
    {
      "constant": true,
      "inputs": [],
      "name": "proposalMaxOperations",
      "outputs": [
        {
          "internalType": "uint256",
          "name": "",
          "type": "uint256"
        }
      ],
      "payable": false,
      "stateMutability": "pure",
      "type": "function"
    },
    {
      "constant": true,
      "inputs": [],
      "name": "votingDelay",
      "outputs": [
        {
          "internalType": "uint256",
          "name": "",
          "type": "uint256"
        }
      ],
      "payable": false,
      "stateMutability": "pure",
      "type": "function"
    },
    {
      "constant": true,
      "inputs": [],
      "name": "votingPeriod",
      "outputs": [
        {
          "internalType": "uint256",
          "name": "",
          "type": "uint256"
        }
      ],
      "payable": false,
      "stateMutability": "pure",
      "type": "function"
    },
    {
      "constant": true,
      "inputs": [],
      "name": "quorumVotes",
      "outputs": [
        {
          "internalType": "uint256",
          "name": "",
          "type": "uint256"
        }
      ],
      "payable": false,
      "stateMutability": "view",
      "type": "function"
    },
    {
      "constant": true,
      "inputs": [],
      "name": "proposalThreshold",
      "outputs": [
        {
          "internalType": "uint256",
          "name": "",
          "type": "uint256"
        }
      ],
      "payable": false,
      "stateMutability": "view",
      "type": "function"
    },
    {
      "constant": false,
      "inputs": [
        {
          "internalType": "address[]",
          "name": "targets",
          "type": "address[]"
        },
        {
          "internalType": "uint256[]",
          "name": "values",
          "type": "uint256[]"
        },
        {
          "internalType": "string[]",
          "name": "signatures",
          "type": "string[]"
        },
        {
          "internalType": "bytes[]",
          "name": "calldatas",
          "type": "bytes[]"
        },
        {
          "internalType": "string",
          "name": "description",
          "type": "string"
        }
      ],
      "name": "propose",
      "outputs": [
        {
          "internalType": "uint256",
          "name": "",
          "type": "uint256"
        }
      ],
      "payable": false,
      "stateMutability": "nonpayable",
      "type": "function"
    },
    {
      "constant": false,
      "inputs": [
        {
          "internalType": "uint256",
          "name": "proposalId",
          "type": "uint256"
        }
      ],
      "name": "queue",
      "outputs": [],
      "payable": false,
      "stateMutability": "nonpayable",
      "type": "function"
    },
    {
      "constant": false,
      "inputs": [
        {
          "internalType": "uint256",
          "name": "proposalId",
          "type": "uint256"
        }
      ],
      "name": "execute",
      "outputs": [],
      "payable": true,
      "stateMutability": "payable",
      "type": "function"
    },
    {
      "constant": false,
      "inputs": [
        {
          "internalType": "uint256",
          "name": "proposalId",
          "type": "uint256"
        }
      ],
      "name": "cancel",
      "outputs": [],
      "payable": false,
      "stateMutability": "nonpayable",
      "type": "function"
    },
    {
      "constant": true,
      "inputs": [
        {
          "internalType": "uint256",
          "name": "proposalId",
          "type": "uint256"
        }
      ],
      "name": "getActions",
      "outputs": [
        {
          "internalType": "address[]",
          "name": "targets",
          "type": "address[]"
        },
        {
          "internalType": "uint256[]",
          "name": "values",
          "type": "uint256[]"
        },
        {
          "internalType": "string[]",
          "name": "signatures",
          "type": "string[]"
        },
        {
          "internalType": "bytes[]",
          "name": "calldatas",
          "type": "bytes[]"
        }
      ],
      "payable": false,
      "stateMutability": "view",
      "type": "function"
    },
    {
      "constant": true,
      "inputs": [
        {
          "internalType": "uint256",
          "name": "proposalId",
          "type": "uint256"
        },
        {
          "internalType": "address",
          "name": "voter",
          "type": "address"
        }
      ],
      "name": "getReceipt",
      "outputs": [
        {
          "components": [
            {
              "internalType": "bool",
              "name": "hasVoted",
              "type": "bool"
            },
            {
              "internalType": "bool",
              "name": "support",
              "type": "bool"
            },
            {
              "internalType": "uint96",
              "name": "votes",
              "type": "uint96"
            }
          ],
          "internalType": "struct Governor.Receipt",
          "name": "",
          "type": "tuple"
        }
      ],
      "payable": false,
      "stateMutability": "view",
      "type": "function"
    },
    {
      "constant": true,
      "inputs": [
        {
          "internalType": "uint256",
          "name": "proposalId",
          "type": "uint256"
        }
      ],
      "name": "state",
      "outputs": [
        {
          "internalType": "enum Governor.ProposalState",
          "name": "",
          "type": "uint8"
        }
      ],
      "payable": false,
      "stateMutability": "view",
      "type": "function"
    },
    {
      "constant": false,
      "inputs": [
        {
          "internalType": "uint256",
          "name": "proposalId",
          "type": "uint256"
        },
        {
          "internalType": "bool",
          "name": "support",
          "type": "bool"
        }
      ],
      "name": "castVote",
      "outputs": [],
      "payable": false,
      "stateMutability": "nonpayable",
      "type": "function"
    },
    {
      "constant": false,
      "inputs": [
        {
          "internalType": "uint256",
          "name": "proposalId",
          "type": "uint256"
        },
        {
          "internalType": "bool",
          "name": "support",
          "type": "bool"
        },
        {
          "internalType": "uint8",
          "name": "v",
          "type": "uint8"
        },
        {
          "internalType": "bytes32",
          "name": "r",
          "type": "bytes32"
        },
        {
          "internalType": "bytes32",
          "name": "s",
          "type": "bytes32"
        }
      ],
      "name": "castVoteBySig",
      "outputs": [],
      "payable": false,
      "stateMutability": "nonpayable",
      "type": "function"
    },
    {
      "constant": false,
      "inputs": [],
      "name": "__acceptAdmin",
      "outputs": [],
      "payable": false,
      "stateMutability": "nonpayable",
      "type": "function"
    },
    {
      "constant": false,
      "inputs": [],
      "name": "__abdicate",
      "outputs": [],
      "payable": false,
      "stateMutability": "nonpayable",
      "type": "function"
    },
    {
      "constant": false,
      "inputs": [
        {
          "internalType": "address",
          "name": "newPendingAdmin",
          "type": "address"
        },
        {
          "internalType": "uint256",
          "name": "eta",
          "type": "uint256"
        }
      ],
      "name": "__queueSetTimelockPendingAdmin",
      "outputs": [],
      "payable": false,
      "stateMutability": "nonpayable",
      "type": "function"
    },
    {
      "constant": false,
      "inputs": [
        {
          "internalType": "address",
          "name": "newPendingAdmin",
          "type": "address"
        },
        {
          "internalType": "uint256",
          "name": "eta",
          "type": "uint256"
        }
      ],
      "name": "__executeSetTimelockPendingAdmin",
      "outputs": [],
      "payable": false,
      "stateMutability": "nonpayable",
      "type": "function"
    }
  ],
  "bytecode": "0x60806040523480156200001157600080fd5b5060405162003b1c38038062003b1c83398101604081905262000034916200008a565b600080546001600160a01b039485166001600160a01b0319918216179091556001805493851693821693909317909255600280549190931691161790556200010a565b80516200008481620000f0565b92915050565b600080600060608486031215620000a057600080fd5b6000620000ae868662000077565b9350506020620000c18682870162000077565b9250506040620000d48682870162000077565b9150509250925092565b60006001600160a01b03821662000084565b620000fb81620000de565b81146200010757600080fd5b50565b613a02806200011a6000396000f3fe60806040526004361061019c5760003560e01c80634634c61f116100ec578063d33219b41161008a578063ddf0b00911610064578063ddf0b00914610463578063deaaa7cc14610483578063e23a9a5214610498578063fe0d94c1146104c55761019c565b8063d33219b414610419578063da35c6641461042e578063da95691a146104435761019c565b806391500671116100c657806391500671146103ad57806396d76c71146103cd578063b58131b0146103ef578063b9a61961146104045761019c565b80634634c61f14610363578063760fbc13146103835780637bdbe4d0146103985761019c565b806321f43e42116101595780633932abb1116101335780633932abb1146102df5780633e4f49e6146102f457806340e58ee514610321578063452a9320146103415761019c565b806321f43e421461027a57806324bc1a641461029a578063328dd982146102af5761019c565b8063013cf08b146101a157806302a251a3146101df57806306fdde031461020157806315373e3d1461022357806317977c611461024557806320606b7014610265575b600080fd5b3480156101ad57600080fd5b506101c16101bc3660046125f5565b6104d8565b6040516101d6999897969594939291906137ad565b60405180910390f35b3480156101eb57600080fd5b506101f4610531565b6040516101d691906134ca565b34801561020d57600080fd5b50610216610538565b6040516101d69190613586565b34801561022f57600080fd5b5061024361023e366004612643565b610564565b005b34801561025157600080fd5b506101f4610260366004612438565b610573565b34801561027157600080fd5b506101f4610585565b34801561028657600080fd5b5061024361029536600461245e565b61059c565b3480156102a657600080fd5b506101f4610683565b3480156102bb57600080fd5b506102cf6102ca3660046125f5565b61073f565b6040516101d6949392919061347d565b3480156102eb57600080fd5b506101f46109ce565b34801561030057600080fd5b5061031461030f3660046125f5565b6109d3565b6040516101d69190613578565b34801561032d57600080fd5b5061024361033c3660046125f5565b610b55565b34801561034d57600080fd5b50610356610dbe565b6040516101d69190613327565b34801561036f57600080fd5b5061024361037e366004612673565b610dcd565b34801561038f57600080fd5b50610243610f5d565b3480156103a457600080fd5b506101f4610f99565b3480156103b957600080fd5b506102436103c836600461245e565b610f9e565b3480156103d957600080fd5b506103e2611073565b6040516101d6919061356a565b3480156103fb57600080fd5b506101f4611082565b34801561041057600080fd5b506102436110e9565b34801561042557600080fd5b506103e261116e565b34801561043a57600080fd5b506101f461117d565b34801561044f57600080fd5b506101f461045e366004612498565b611183565b34801561046f57600080fd5b5061024361047e3660046125f5565b6115a5565b34801561048f57600080fd5b506101f461180f565b3480156104a457600080fd5b506104b86104b3366004612613565b61181b565b6040516101d691906136f7565b6102436104d33660046125f5565b61188a565b6004602052600090815260409020805460018201546002830154600784015460088501546009860154600a870154600b9097015495966001600160a01b0390951695939492939192909160ff8082169161010090041689565b6116805b90565b6040518060400160405280601081526020016f29bcb6b13637bc1023b7bb32b93737b960811b81525081565b61056f338383611a4f565b5050565b60056020526000908152604090205481565b60405161059190613311565b604051809103902081565b6002546001600160a01b031633146105cf5760405162461bcd60e51b81526004016105c6906135c7565b60405180910390fd5b600080546040516001600160a01b0390911691630825f38f918391906105f9908790602001613327565b604051602081830303815290604052856040518563ffffffff1660e01b81526004016106289493929190613350565b600060405180830381600087803b15801561064257600080fd5b505af1158015610656573d6000803e3d6000fd5b505050506040513d6000823e601f3d908101601f1916820160405261067e91908101906125c0565b505050565b600061073a670de0b6b3a764000061072e668e1bc9bf040000600160009054906101000a90046001600160a01b03166001600160a01b03166318160ddd6040518163ffffffff1660e01b815260040160206040518083038186803b1580156106ea57600080fd5b505afa1580156106fe573d6000803e3d6000fd5b505050506040513d601f19601f8201168201806040525061072291908101906125a2565b9063ffffffff611c1816565b9063ffffffff611c5916565b905090565b606080606080600060046000878152602001908152602001600020905080600301816004018260050183600601838054806020026020016040519081016040528092919081815260200182805480156107c157602002820191906000526020600020905b81546001600160a01b031681526001909101906020018083116107a3575b505050505093508280548060200260200160405190810160405280929190818152602001828054801561081357602002820191906000526020600020905b8154815260200190600101908083116107ff575b5050505050925081805480602002602001604051908101604052809291908181526020016000905b828210156108e65760008481526020908190208301805460408051601f60026000196101006001871615020190941693909304928301859004850281018501909152818152928301828280156108d25780601f106108a7576101008083540402835291602001916108d2565b820191906000526020600020905b8154815290600101906020018083116108b557829003601f168201915b50505050508152602001906001019061083b565b50505050915080805480602002602001604051908101604052809291908181526020016000905b828210156109b85760008481526020908190208301805460408051601f60026000196101006001871615020190941693909304928301859004850281018501909152818152928301828280156109a45780601f10610979576101008083540402835291602001916109a4565b820191906000526020600020905b81548152906001019060200180831161098757829003601f168201915b50505050508152602001906001019061090d565b5050505090509450945094509450509193509193565b600190565b600081600354101580156109e75750600082115b610a035760405162461bcd60e51b81526004016105c6906135d7565b6000828152600460205260409020600b81015460ff1615610a28576002915050610b50565b80600701544311610a3d576000915050610b50565b80600801544311610a52576001915050610b50565b80600a01548160090154111580610a735750610a6c610683565b8160090154105b15610a82576003915050610b50565b6002810154610a95576004915050610b50565b600b810154610100900460ff1615610ab1576007915050610b50565b6002810154600054604080516360d143f160e11b81529051610b3a93926001600160a01b03169163c1a287e2916004808301926020929190829003018186803b158015610afd57600080fd5b505afa158015610b11573d6000803e3d6000fd5b505050506040513d601f19601f82011682018060405250610b3591908101906125a2565b611c9b565b4210610b4a576006915050610b50565b60059150505b919050565b6000610b60826109d3565b90506007816007811115610b7057fe5b1415610b8e5760405162461bcd60e51b81526004016105c6906136b7565b60008281526004602052604090206002546001600160a01b0316331480610c595750610bb8611082565b60018054838201546001600160a01b039182169263782d6fe19290911690610be1904390611cc0565b6040518363ffffffff1660e01b8152600401610bfe92919061339f565b60206040518083038186803b158015610c1657600080fd5b505afa158015610c2a573d6000803e3d6000fd5b505050506040513d601f19601f82011682018060405250610c4e91908101906126db565b6001600160601b0316105b610c755760405162461bcd60e51b81526004016105c690613657565b600b8101805460ff1916600117905560005b6003820154811015610d81576000546003830180546001600160a01b039092169163591fcdfe919084908110610cb957fe5b6000918252602090912001546004850180546001600160a01b039092169185908110610ce157fe5b9060005260206000200154856005018581548110610cfb57fe5b90600052602060002001866006018681548110610d1457fe5b9060005260206000200187600201546040518663ffffffff1660e01b8152600401610d4395949392919061343c565b600060405180830381600087803b158015610d5d57600080fd5b505af1158015610d71573d6000803e3d6000fd5b505060019092019150610c879050565b507f789cf55be980739dad1d0699b93b58e806b51c9d96619bfa8fe0a28abaa7b30c83604051610db191906134ca565b60405180910390a1505050565b6002546001600160a01b031681565b6000604051610ddb90613311565b60408051918290038220828201909152601082526f29bcb6b13637bc1023b7bb32b93737b960811b6020909201919091527fb3fa3873e44832da853c6e4b08100d15042b3334bc4ba9ce7c7b047855629bf9610e35611ce8565b30604051602001610e4994939291906134d8565b6040516020818303038152906040528051906020012090506000604051610e6f9061331c565b604051908190038120610e88918990899060200161350d565b60405160208183030381529060405280519060200120905060008282604051602001610eb59291906132e0565b604051602081830303815290604052805190602001209050600060018288888860405160008152602001604052604051610ef29493929190613535565b6020604051602081039080840390855afa158015610f14573d6000803e3d6000fd5b5050604051601f1901519150506001600160a01b038116610f475760405162461bcd60e51b81526004016105c690613697565b610f52818a8a611a4f565b505050505050505050565b6002546001600160a01b03163314610f875760405162461bcd60e51b81526004016105c6906136e7565b600280546001600160a01b0319169055565b600a90565b6002546001600160a01b03163314610fc85760405162461bcd60e51b81526004016105c690613607565b600080546040516001600160a01b0390911691633a66f90191839190610ff2908790602001613327565b604051602081830303815290604052856040518563ffffffff1660e01b81526004016110219493929190613350565b602060405180830381600087803b15801561103b57600080fd5b505af115801561104f573d6000803e3d6000fd5b505050506040513d601f19601f8201168201806040525061067e91908101906125a2565b6001546001600160a01b031681565b600061073a670de0b6b3a764000061072e662386f26fc10000600160009054906101000a90046001600160a01b03166001600160a01b03166318160ddd6040518163ffffffff1660e01b815260040160206040518083038186803b1580156106ea57600080fd5b6002546001600160a01b031633146111135760405162461bcd60e51b81526004016105c690613597565b6000805460408051630e18b68160e01b815290516001600160a01b0390921692630e18b6819260048084019382900301818387803b15801561115457600080fd5b505af1158015611168573d6000803e3d6000fd5b50505050565b6000546001600160a01b031681565b60035481565b600061118d611082565b600180546001600160a01b03169063782d6fe19033906111ae904390611cc0565b6040518363ffffffff1660e01b81526004016111cb929190613335565b60206040518083038186803b1580156111e357600080fd5b505afa1580156111f7573d6000803e3d6000fd5b505050506040513d601f19601f8201168201806040525061121b91908101906126db565b6001600160601b0316116112415760405162461bcd60e51b81526004016105c690613687565b84518651148015611253575083518651145b8015611260575082518651145b61127c5760405162461bcd60e51b81526004016105c690613637565b855161129a5760405162461bcd60e51b81526004016105c690613677565b6112a2610f99565b865111156112c25760405162461bcd60e51b81526004016105c690613617565b33600090815260056020526040902054801561133f5760006112e3826109d3565b905060018160078111156112f357fe5b14156113115760405162461bcd60e51b81526004016105c6906136a7565b600081600781111561131f57fe5b141561133d5760405162461bcd60e51b81526004016105c6906135f7565b505b600061134d43610b356109ce565b9050600061135d82610b35610531565b6003805460010190559050611370611e82565b604051806101a001604052806003548152602001336001600160a01b03168152602001600081526020018b81526020018a815260200189815260200188815260200184815260200183815260200160008152602001600081526020016000151581526020016000151581525090508060046000836000015181526020019081526020016000206000820151816000015560208201518160010160006101000a8154816001600160a01b0302191690836001600160a01b03160217905550604082015181600201556060820151816003019080519060200190611453929190611ef7565b506080820151805161146f916004840191602090910190611f5c565b5060a0820151805161148b916005840191602090910190611fa3565b5060c082015180516114a7916006840191602090910190611ffc565b5060e082015181600701556101008201518160080155610120820151816009015561014082015181600a015561016082015181600b0160006101000a81548160ff02191690831515021790555061018082015181600b0160016101000a81548160ff02191690831515021790555090505080600001516005600083602001516001600160a01b03166001600160a01b03168152602001908152602001600020819055507f7d84a6263ae0d98d3329bd7b46bb4e8d6f98cd35a7adb45c274c8b7fd5ebd5e08160000151338c8c8c8c89898e60405161158d99989796959493929190613705565b60405180910390a15193505050505b95945050505050565b60046115b0826109d3565b60078111156115bb57fe5b146115d85760405162461bcd60e51b81526004016105c6906135a7565b600081815260046020818152604080842084548251630d48571f60e31b8152925191959461162d9442946001600160a01b0390931693636a42b8f8938084019390829003018186803b158015610afd57600080fd5b905060005b60038301548110156117d5576117cd83600301828154811061165057fe5b6000918252602090912001546004850180546001600160a01b03909216918490811061167857fe5b906000526020600020015485600501848154811061169257fe5b600091825260209182902001805460408051601f60026000196101006001871615020190941693909304928301859004850281018501909152818152928301828280156117205780601f106116f557610100808354040283529160200191611720565b820191906000526020600020905b81548152906001019060200180831161170357829003601f168201915b505050505086600601858154811061173457fe5b600091825260209182902001805460408051601f60026000196101006001871615020190941693909304928301859004850281018501909152818152928301828280156117c25780601f10611797576101008083540402835291602001916117c2565b820191906000526020600020905b8154815290600101906020018083116117a557829003601f168201915b505050505086611cec565b600101611632565b50600282018190556040517f9a2e42fd6722813d69113e7d0079d3d940171428df7373df9c7f7617cfda289290610db19085908490613833565b6040516105919061331c565b611823612055565b5060008281526004602090815260408083206001600160a01b0385168452600c018252918290208251606081018452905460ff80821615158352610100820416151592820192909252620100009091046001600160601b0316918101919091525b92915050565b6005611895826109d3565b60078111156118a057fe5b146118bd5760405162461bcd60e51b81526004016105c6906135b7565b6000818152600460205260408120600b8101805461ff001916610100179055905b6003820154811015611a13576000546004830180546001600160a01b0390921691630825f38f91908490811061191057fe5b906000526020600020015484600301848154811061192a57fe5b6000918252602090912001546004860180546001600160a01b03909216918690811061195257fe5b906000526020600020015486600501868154811061196c57fe5b9060005260206000200187600601878154811061198557fe5b9060005260206000200188600201546040518763ffffffff1660e01b81526004016119b495949392919061343c565b6000604051808303818588803b1580156119cd57600080fd5b505af11580156119e1573d6000803e3d6000fd5b50505050506040513d6000823e601f3d908101601f19168201604052611a0a91908101906125c0565b506001016118de565b507f712ae1383f79ac853f8d882153778e0260ef8f03b504e2866e0593e04d2b291f82604051611a4391906134ca565b60405180910390a15050565b6001611a5a836109d3565b6007811115611a6557fe5b14611a825760405162461bcd60e51b81526004016105c6906136c7565b60008281526004602090815260408083206001600160a01b0387168452600c8101909252909120805460ff1615611acb5760405162461bcd60e51b81526004016105c6906135e7565b600154600783015460405163782d6fe160e01b81526000926001600160a01b03169163782d6fe191611b01918a9160040161339f565b60206040518083038186803b158015611b1957600080fd5b505afa158015611b2d573d6000803e3d6000fd5b505050506040513d601f19601f82011682018060405250611b5191908101906126db565b90508315611b7a57611b708360090154826001600160601b0316611c9b565b6009840155611b97565b611b9183600a0154826001600160601b0316611c9b565b600a8401555b8154600160ff199091161761ff00191661010085151502176dffffffffffffffffffffffff00001916620100006001600160601b038316021782556040517f877856338e13f63d0c36822ff0ef736b80934cd90574a3a5bc9262c39d217c4690611c089088908890889086906133ad565b60405180910390a1505050505050565b600082611c2757506000611884565b82820282848281611c3457fe5b0414611c525760405162461bcd60e51b81526004016105c690613647565b9392505050565b6000611c5283836040518060400160405280601a81526020017f536166654d6174683a206469766973696f6e206279207a65726f000000000000815250611e4b565b600082820183811015611c525760405162461bcd60e51b81526004016105c690613627565b600082821115611ce25760405162461bcd60e51b81526004016105c6906136d7565b50900390565b4690565b6000546040516001600160a01b039091169063f2b0653790611d1a90889088908890889088906020016133e2565b604051602081830303815290604052805190602001206040518263ffffffff1660e01b8152600401611d4c91906134ca565b60206040518083038186803b158015611d6457600080fd5b505afa158015611d78573d6000803e3d6000fd5b505050506040513d601f19601f82011682018060405250611d9c9190810190612584565b15611db95760405162461bcd60e51b81526004016105c690613667565b600054604051633a66f90160e01b81526001600160a01b0390911690633a66f90190611df190889088908890889088906004016133e2565b602060405180830381600087803b158015611e0b57600080fd5b505af1158015611e1f573d6000803e3d6000fd5b505050506040513d601f19601f82011682018060405250611e4391908101906125a2565b505050505050565b60008183611e6c5760405162461bcd60e51b81526004016105c69190613586565b506000838581611e7857fe5b0495945050505050565b604051806101a001604052806000815260200160006001600160a01b031681526020016000815260200160608152602001606081526020016060815260200160608152602001600081526020016000815260200160008152602001600081526020016000151581526020016000151581525090565b828054828255906000526020600020908101928215611f4c579160200282015b82811115611f4c57825182546001600160a01b0319166001600160a01b03909116178255602090920191600190910190611f17565b50611f58929150612075565b5090565b828054828255906000526020600020908101928215611f97579160200282015b82811115611f97578251825591602001919060010190611f7c565b50611f58929150612099565b828054828255906000526020600020908101928215611ff0579160200282015b82811115611ff05782518051611fe09184916020909101906120b3565b5091602001919060010190611fc3565b50611f58929150612120565b828054828255906000526020600020908101928215612049579160200282015b8281111561204957825180516120399184916020909101906120b3565b509160200191906001019061201c565b50611f58929150612143565b604080516060810182526000808252602082018190529181019190915290565b61053591905b80821115611f585780546001600160a01b031916815560010161207b565b61053591905b80821115611f58576000815560010161209f565b828054600181600116156101000203166002900490600052602060002090601f016020900481019282601f106120f457805160ff1916838001178555611f97565b82800160010185558215611f975791820182811115611f97578251825591602001919060010190611f7c565b61053591905b80821115611f5857600061213a8282612166565b50600101612126565b61053591905b80821115611f5857600061215d8282612166565b50600101612149565b50805460018160011615610100020316600290046000825580601f1061218c57506121aa565b601f0160209004906000526020600020908101906121aa9190612099565b50565b803561188481613987565b600082601f8301126121c957600080fd5b81356121dc6121d782613868565b613841565b9150818183526020840193506020810190508385602084028201111561220157600080fd5b60005b8381101561222d578161221788826121ad565b8452506020928301929190910190600101612204565b5050505092915050565b600082601f83011261224857600080fd5b81356122566121d782613868565b81815260209384019390925082018360005b8381101561222d578135860161227e888261238d565b8452506020928301929190910190600101612268565b600082601f8301126122a557600080fd5b81356122b36121d782613868565b81815260209384019390925082018360005b8381101561222d57813586016122db888261238d565b84525060209283019291909101906001016122c5565b600082601f83011261230257600080fd5b81356123106121d782613868565b9150818183526020840193506020810190508385602084028201111561233557600080fd5b60005b8381101561222d578161234b8882612377565b8452506020928301929190910190600101612338565b80356118848161399b565b80516118848161399b565b8035611884816139a4565b8051611884816139a4565b600082601f83011261239e57600080fd5b81356123ac6121d782613889565b915080825260208301602083018583830111156123c857600080fd5b6123d383828461393b565b50505092915050565b600082601f8301126123ed57600080fd5b81516123fb6121d782613889565b9150808252602083016020830185838301111561241757600080fd5b6123d3838284613947565b8035611884816139ad565b8051611884816139b6565b60006020828403121561244a57600080fd5b600061245684846121ad565b949350505050565b6000806040838503121561247157600080fd5b600061247d85856121ad565b925050602061248e85828601612377565b9150509250929050565b600080600080600060a086880312156124b057600080fd5b853567ffffffffffffffff8111156124c757600080fd5b6124d3888289016121b8565b955050602086013567ffffffffffffffff8111156124f057600080fd5b6124fc888289016122f1565b945050604086013567ffffffffffffffff81111561251957600080fd5b61252588828901612294565b935050606086013567ffffffffffffffff81111561254257600080fd5b61254e88828901612237565b925050608086013567ffffffffffffffff81111561256b57600080fd5b6125778882890161238d565b9150509295509295909350565b60006020828403121561259657600080fd5b6000612456848461236c565b6000602082840312156125b457600080fd5b60006124568484612382565b6000602082840312156125d257600080fd5b815167ffffffffffffffff8111156125e957600080fd5b612456848285016123dc565b60006020828403121561260757600080fd5b60006124568484612377565b6000806040838503121561262657600080fd5b60006126328585612377565b925050602061248e858286016121ad565b6000806040838503121561265657600080fd5b60006126628585612377565b925050602061248e85828601612361565b600080600080600060a0868803121561268b57600080fd5b60006126978888612377565b95505060206126a888828901612361565b94505060406126b988828901612422565b93505060606126ca88828901612377565b925050608061257788828901612377565b6000602082840312156126ed57600080fd5b6000612456848461242d565b60006127058383612734565b505060200190565b6000611c5283836128d6565b600061270583836128bc565b61272e81613908565b82525050565b61272e816138d0565b6000612748826138c3565b61275281856138c7565b935061275d836138b1565b8060005b8381101561278b57815161277588826126f9565b9750612780836138b1565b925050600101612761565b509495945050505050565b60006127a1826138c3565b6127ab81856138c7565b9350836020820285016127bd856138b1565b8060005b858110156127f757848403895281516127da858261270d565b94506127e5836138b1565b60209a909a01999250506001016127c1565b5091979650505050505050565b600061280f826138c3565b61281981856138c7565b93508360208202850161282b856138b1565b8060005b858110156127f75784840389528151612848858261270d565b9450612853836138b1565b60209a909a019992505060010161282f565b6000612870826138c3565b61287a81856138c7565b9350612885836138b1565b8060005b8381101561278b57815161289d8882612719565b97506128a8836138b1565b925050600101612889565b61272e816138db565b61272e81610535565b61272e6128d182610535565b610535565b60006128e1826138c3565b6128eb81856138c7565b93506128fb818560208601613947565b61290481613973565b9093019392505050565b60008154600181166000811461292b576001811461295157612990565b607f600283041661293c81876138c7565b60ff1984168152955050602085019250612990565b6002820461295f81876138c7565b955061296a856138b7565b60005b828110156129895781548882015260019091019060200161296d565b8701945050505b505092915050565b61272e8161390f565b61272e8161391a565b61272e81613925565b60006129c06039836138c7565b7f476f7665726e6f72416c7068613a3a5f5f61636365707441646d696e3a20736581527f6e646572206d75737420626520676f7620677561726469616e00000000000000602082015260400192915050565b6000612a1f6044836138c7565b7f476f7665726e6f72416c7068613a3a71756575653a2070726f706f73616c206381527f616e206f6e6c79206265207175657565642069662069742069732073756363656020820152631959195960e21b604082015260600192915050565b6000612a8b6045836138c7565b7f476f7665726e6f72416c7068613a3a657865637574653a2070726f706f73616c81527f2063616e206f6e6c7920626520657865637574656420696620697420697320716020820152641d595d595960da1b604082015260600192915050565b6000612af8600283610b50565b61190160f01b815260020192915050565b6000612b16604c836138c7565b7f476f7665726e6f72416c7068613a3a5f5f6578656375746553657454696d656c81527f6f636b50656e64696e6741646d696e3a2073656e646572206d7573742062652060208201526b33b7bb1033bab0b93234b0b760a11b604082015260600192915050565b6000612b8a6018836138c7565b7f73657450656e64696e6741646d696e2861646472657373290000000000000000815260200192915050565b6000612bc36029836138c7565b7f476f7665726e6f72416c7068613a3a73746174653a20696e76616c69642070728152681bdc1bdcd85b081a5960ba1b602082015260400192915050565b6000612c0e602d836138c7565b7f476f7665726e6f72416c7068613a3a5f63617374566f74653a20766f7465722081526c185b1c9958591e481d9bdd1959609a1b602082015260400192915050565b6000612c5d6059836138c7565b7f476f7665726e6f72416c7068613a3a70726f706f73653a206f6e65206c69766581527f2070726f706f73616c207065722070726f706f7365722c20666f756e6420616e60208201527f20616c72656164792070656e64696e672070726f706f73616c00000000000000604082015260600192915050565b6000612ce2604a836138c7565b7f476f7665726e6f72416c7068613a3a5f5f717565756553657454696d656c6f6381527f6b50656e64696e6741646d696e3a2073656e646572206d75737420626520676f6020820152693b1033bab0b93234b0b760b11b604082015260600192915050565b6000612d546028836138c7565b7f476f7665726e6f72416c7068613a3a70726f706f73653a20746f6f206d616e7981526720616374696f6e7360c01b602082015260400192915050565b6000612d9e6011836138c7565b706164646974696f6e206f766572666c6f7760781b815260200192915050565b6000612dcb604383610b50565b7f454950373132446f6d61696e28737472696e67206e616d652c75696e7432353681527f20636861696e49642c6164647265737320766572696679696e67436f6e74726160208201526263742960e81b604082015260430192915050565b6000612e36602783610b50565b7f42616c6c6f742875696e743235362070726f706f73616c49642c626f6f6c20738152667570706f72742960c81b602082015260270192915050565b6000612e7f6044836138c7565b7f476f7665726e6f72416c7068613a3a70726f706f73653a2070726f706f73616c81527f2066756e6374696f6e20696e666f726d6174696f6e206172697479206d69736d6020820152630c2e8c6d60e31b604082015260600192915050565b6000612eeb6021836138c7565b7f536166654d6174683a206d756c7469706c69636174696f6e206f766572666c6f8152607760f81b602082015260400192915050565b6000612f2e602f836138c7565b7f476f7665726e6f72416c7068613a3a63616e63656c3a2070726f706f7365722081526e18589bdd99481d1a1c995cda1bdb19608a1b602082015260400192915050565b6000612f7f6044836138c7565b7f476f7665726e6f72416c7068613a3a5f71756575654f725265766572743a207081527f726f706f73616c20616374696f6e20616c7265616479207175657565642061746020820152632065746160e01b604082015260600192915050565b6000612feb602c836138c7565b7f476f7665726e6f72416c7068613a3a70726f706f73653a206d7573742070726f81526b7669646520616374696f6e7360a01b602082015260400192915050565b6000613039603f836138c7565b7f476f7665726e6f72416c7068613a3a70726f706f73653a2070726f706f73657281527f20766f7465732062656c6f772070726f706f73616c207468726573686f6c6400602082015260400192915050565b6000613098602f836138c7565b7f476f7665726e6f72416c7068613a3a63617374566f746542795369673a20696e81526e76616c6964207369676e617475726560881b602082015260400192915050565b60006130e96058836138c7565b7f476f7665726e6f72416c7068613a3a70726f706f73653a206f6e65206c69766581527f2070726f706f73616c207065722070726f706f7365722c20666f756e6420616e60208201527f20616c7265616479206163746976652070726f706f73616c0000000000000000604082015260600192915050565b600061316e6036836138c7565b7f476f7665726e6f72416c7068613a3a63616e63656c3a2063616e6e6f742063618152751b98d95b08195e1958dd5d1959081c1c9bdc1bdcd85b60521b602082015260400192915050565b60006131c6602a836138c7565b7f476f7665726e6f72416c7068613a3a5f63617374566f74653a20766f74696e67815269081a5cc818db1bdcd95960b21b602082015260400192915050565b60006132126015836138c7565b747375627472616374696f6e20756e646572666c6f7760581b815260200192915050565b60006132436036836138c7565b7f476f7665726e6f72416c7068613a3a5f5f61626469636174653a2073656e6465815275391036bab9ba1031329033b7bb1033bab0b93234b0b760511b602082015260400192915050565b8051606083019061329f84826128b3565b5060208201516132b260208501826128b3565b50604082015161116860408501826132d7565b61272e816138f6565b61272e81613930565b61272e816138fc565b60006132eb82612aeb565b91506132f782856128c5565b60208201915061330782846128c5565b5060200192915050565b600061188482612dbe565b600061188482612e29565b602081016118848284612734565b604081016133438285612725565b611c5260208301846128bc565b60a0810161335e8287612734565b61336b60208301866129aa565b818103604083015261337c81612b7d565b9050818103606083015261339081856128d6565b905061159c60808301846128bc565b604081016133438285612734565b608081016133bb8287612734565b6133c860208301866128bc565b6133d560408301856128b3565b61159c60608301846132ce565b60a081016133f08288612734565b6133fd60208301876128bc565b818103604083015261340f81866128d6565b9050818103606083015261342381856128d6565b905061343260808301846128bc565b9695505050505050565b60a0810161344a8288612734565b61345760208301876128bc565b8181036040830152613469818661290e565b90508181036060830152613423818561290e565b6080808252810161348e818761273d565b905081810360208301526134a28186612865565b905081810360408301526134b68185612804565b905081810360608301526134328184612796565b6020810161188482846128bc565b608081016134e682876128bc565b6134f360208301866128bc565b61350060408301856128bc565b61159c6060830184612734565b6060810161351b82866128bc565b61352860208301856128bc565b61245660408301846128b3565b6080810161354382876128bc565b61355060208301866132c5565b61355d60408301856128bc565b61159c60608301846128bc565b602081016118848284612998565b6020810161188482846129a1565b60208082528101611c5281846128d6565b60208082528101611884816129b3565b6020808252810161188481612a12565b6020808252810161188481612a7e565b6020808252810161188481612b09565b6020808252810161188481612bb6565b6020808252810161188481612c01565b6020808252810161188481612c50565b6020808252810161188481612cd5565b6020808252810161188481612d47565b6020808252810161188481612d91565b6020808252810161188481612e72565b6020808252810161188481612ede565b6020808252810161188481612f21565b6020808252810161188481612f72565b6020808252810161188481612fde565b602080825281016118848161302c565b602080825281016118848161308b565b60208082528101611884816130dc565b6020808252810161188481613161565b60208082528101611884816131b9565b6020808252810161188481613205565b6020808252810161188481613236565b60608101611884828461328e565b6101208101613714828c6128bc565b613721602083018b612725565b8181036040830152613733818a61273d565b905081810360608301526137478189612865565b9050818103608083015261375b8188612804565b905081810360a083015261376f8187612796565b905061377e60c08301866128bc565b61378b60e08301856128bc565b81810361010083015261379e81846128d6565b9b9a5050505050505050505050565b61012081016137bc828c6128bc565b6137c9602083018b612734565b6137d6604083018a6128bc565b6137e360608301896128bc565b6137f060808301886128bc565b6137fd60a08301876128bc565b61380a60c08301866128bc565b61381760e08301856128b3565b6138256101008301846128b3565b9a9950505050505050505050565b6040810161334382856128bc565b60405181810167ffffffffffffffff8111828210171561386057600080fd5b604052919050565b600067ffffffffffffffff82111561387f57600080fd5b5060209081020190565b600067ffffffffffffffff8211156138a057600080fd5b506020601f91909101601f19160190565b60200190565b60009081526020902090565b5190565b90815260200190565b6000611884826138ea565b151590565b80610b508161397d565b6001600160a01b031690565b60ff1690565b6001600160601b031690565b6000611884825b6000611884826138d0565b6000611884826138e0565b600061188482610535565b6000611884826138fc565b82818337506000910152565b60005b8381101561396257818101518382015260200161394a565b838111156111685750506000910152565b601f01601f191690565b600881106121aa57fe5b613990816138d0565b81146121aa57600080fd5b613990816138db565b61399081610535565b613990816138f6565b613990816138fc56fea365627a7a7231582013c1a9a3a317823fdc178934454aea111559d309a0fa6951080e70f5841d9c216c6578706572696d656e74616cf564736f6c63430005110040",
  "source": "pragma solidity ^0.5.16;\npragma experimental ABIEncoderV2;\nimport \"@openzeppelin/contracts/token/ERC20/SafeERC20.sol\";\n\ncontract Governor {\n    using SafeMath for uint;\n\n    /// @notice The name of this contract\n    string public constant name = \"Symblox Governor\";\n\n    /// @notice The maximum number of actions that can be included in a proposal\n    function proposalMaxOperations() public pure returns (uint) { return 10; } // 10 actions\n\n    /// @notice The delay before voting on a proposal may take place, once proposed\n    function votingDelay() public pure returns (uint) { return 1; } // 1 block\n\n    /// @notice The duration of voting on a proposal, in blocks\n    function votingPeriod() public pure returns (uint) { return 5760; } // ~3 days in blocks (assuming 5s blocks)\n\n    /// @notice The address of the Symblox Protocol Timelock\n    TimelockInterface public timelock;\n\n    /// @notice The address of the Symblox governance token\n    SyxInterface public syx;\n\n    /// @notice The address of the Governor Guardian\n    address public guardian;\n\n    /// @notice The total number of proposals\n    uint public proposalCount;\n\n    /// @notice The number of votes in support of a proposal required in order for a quorum to be reached and for a vote to succeed\n    function quorumVotes() public view returns (uint) {\n        return syx.totalSupply().mul(4e16).div(1e18);\n    } // 4% of syx\n\n    /// @notice The number of votes required in order for a voter to become a proposer\n    function proposalThreshold() public view returns (uint) { \n        return syx.totalSupply().mul(1e16).div(1e18);\n    } // 1% of syx\n\n    struct Proposal {\n        /// @notice Unique id for looking up a proposal\n        uint id;\n\n        /// @notice Creator of the proposal\n        address proposer;\n\n        /// @notice The timestamp that the proposal will be available for execution, set once the vote succeeds\n        uint eta;\n\n        /// @notice the ordered list of target addresses for calls to be made\n        address[] targets;\n\n        /// @notice The ordered list of values (i.e. msg.value) to be passed to the calls to be made\n        uint[] values;\n\n        /// @notice The ordered list of function signatures to be called\n        string[] signatures;\n\n        /// @notice The ordered list of calldata to be passed to each call\n        bytes[] calldatas;\n\n        /// @notice The block at which voting begins: holders must delegate their votes prior to this block\n        uint startBlock;\n\n        /// @notice The block at which voting ends: votes must be cast prior to this block\n        uint endBlock;\n\n        /// @notice Current number of votes in favor of this proposal\n        uint forVotes;\n\n        /// @notice Current number of votes in opposition to this proposal\n        uint againstVotes;\n\n        /// @notice Flag marking whether the proposal has been canceled\n        bool canceled;\n\n        /// @notice Flag marking whether the proposal has been executed\n        bool executed;\n\n        /// @notice Receipts of ballots for the entire set of voters\n        mapping (address => Receipt) receipts;\n    }\n\n    /// @notice Ballot receipt record for a voter\n    struct Receipt {\n        /// @notice Whether or not a vote has been cast\n        bool hasVoted;\n\n        /// @notice Whether or not the voter supports the proposal\n        bool support;\n\n        /// @notice The number of votes the voter had, which were cast\n        uint96 votes;\n    }\n\n    /// @notice Possible states that a proposal may be in\n    enum ProposalState {\n        Pending,\n        Active,\n        Canceled,\n        Defeated,\n        Succeeded,\n        Queued,\n        Expired,\n        Executed\n    }\n\n    /// @notice The official record of all proposals ever proposed\n    mapping (uint => Proposal) public proposals;\n\n    /// @notice The latest proposal for each proposer\n    mapping (address => uint) public latestProposalIds;\n\n    /// @notice The EIP-712 typehash for the contract's domain\n    bytes32 public constant DOMAIN_TYPEHASH = keccak256(\"EIP712Domain(string name,uint256 chainId,address verifyingContract)\");\n\n    /// @notice The EIP-712 typehash for the ballot struct used by the contract\n    bytes32 public constant BALLOT_TYPEHASH = keccak256(\"Ballot(uint256 proposalId,bool support)\");\n\n    /// @notice An event emitted when a new proposal is created\n    event ProposalCreated(uint id, address proposer, address[] targets, uint[] values, string[] signatures, bytes[] calldatas, uint startBlock, uint endBlock, string description);\n\n    /// @notice An event emitted when a vote has been cast on a proposal\n    event VoteCast(address voter, uint proposalId, bool support, uint votes);\n\n    /// @notice An event emitted when a proposal has been canceled\n    event ProposalCanceled(uint id);\n\n    /// @notice An event emitted when a proposal has been queued in the Timelock\n    event ProposalQueued(uint id, uint eta);\n\n    /// @notice An event emitted when a proposal has been executed in the Timelock\n    event ProposalExecuted(uint id);\n\n    constructor(address timelock_, address syx_, address guardian_) public {\n        timelock = TimelockInterface(timelock_);\n        syx = SyxInterface(syx_);\n        guardian = guardian_;\n    }\n\n    function propose(address[] memory targets, uint[] memory values, string[] memory signatures, bytes[] memory calldatas, string memory description) public returns (uint) {\n        require(syx.getPriorVotes(msg.sender, sub256(block.number, 1)) > proposalThreshold(), \"Governor::propose: proposer votes below proposal threshold\");\n        require(targets.length == values.length && targets.length == signatures.length && targets.length == calldatas.length, \"Governor::propose: proposal function information arity mismatch\");\n        require(targets.length != 0, \"Governor::propose: must provide actions\");\n        require(targets.length <= proposalMaxOperations(), \"Governor::propose: too many actions\");\n\n        uint latestProposalId = latestProposalIds[msg.sender];\n        if (latestProposalId != 0) {\n          ProposalState proposersLatestProposalState = state(latestProposalId);\n          require(proposersLatestProposalState != ProposalState.Active, \"Governor::propose: one live proposal per proposer, found an already active proposal\");\n          require(proposersLatestProposalState != ProposalState.Pending, \"Governor::propose: one live proposal per proposer, found an already pending proposal\");\n        }\n\n        uint startBlock = add256(block.number, votingDelay());\n        uint endBlock = add256(startBlock, votingPeriod());\n\n        proposalCount++;\n        Proposal memory newProposal = Proposal({\n            id: proposalCount,\n            proposer: msg.sender,\n            eta: 0,\n            targets: targets,\n            values: values,\n            signatures: signatures,\n            calldatas: calldatas,\n            startBlock: startBlock,\n            endBlock: endBlock,\n            forVotes: 0,\n            againstVotes: 0,\n            canceled: false,\n            executed: false\n        });\n\n        proposals[newProposal.id] = newProposal;\n        latestProposalIds[newProposal.proposer] = newProposal.id;\n\n        emit ProposalCreated(newProposal.id, msg.sender, targets, values, signatures, calldatas, startBlock, endBlock, description);\n        return newProposal.id;\n    }\n\n    function queue(uint proposalId) public {\n        require(state(proposalId) == ProposalState.Succeeded, \"Governor::queue: proposal can only be queued if it is succeeded\");\n        Proposal storage proposal = proposals[proposalId];\n        uint eta = add256(block.timestamp, timelock.delay());\n        for (uint i = 0; i < proposal.targets.length; i++) {\n            _queueOrRevert(proposal.targets[i], proposal.values[i], proposal.signatures[i], proposal.calldatas[i], eta);\n        }\n        proposal.eta = eta;\n        emit ProposalQueued(proposalId, eta);\n    }\n\n    function _queueOrRevert(address target, uint value, string memory signature, bytes memory data, uint eta) internal {\n        require(!timelock.queuedTransactions(keccak256(abi.encode(target, value, signature, data, eta))), \"Governor::_queueOrRevert: proposal action already queued at eta\");\n        timelock.queueTransaction(target, value, signature, data, eta);\n    }\n\n    function execute(uint proposalId) public payable {\n        require(state(proposalId) == ProposalState.Queued, \"Governor::execute: proposal can only be executed if it is queued\");\n        Proposal storage proposal = proposals[proposalId];\n        proposal.executed = true;\n        for (uint i = 0; i < proposal.targets.length; i++) {\n            timelock.executeTransaction.value(proposal.values[i])(proposal.targets[i], proposal.values[i], proposal.signatures[i], proposal.calldatas[i], proposal.eta);\n        }\n        emit ProposalExecuted(proposalId);\n    }\n\n    function cancel(uint proposalId) public {\n        ProposalState state = state(proposalId);\n        require(state != ProposalState.Executed, \"Governor::cancel: cannot cancel executed proposal\");\n\n        Proposal storage proposal = proposals[proposalId];\n        require(msg.sender == guardian || syx.getPriorVotes(proposal.proposer, sub256(block.number, 1)) < proposalThreshold(), \"Governor::cancel: proposer above threshold\");\n\n        proposal.canceled = true;\n        for (uint i = 0; i < proposal.targets.length; i++) {\n            timelock.cancelTransaction(proposal.targets[i], proposal.values[i], proposal.signatures[i], proposal.calldatas[i], proposal.eta);\n        }\n\n        emit ProposalCanceled(proposalId);\n    }\n\n    function getActions(uint proposalId) public view returns (address[] memory targets, uint[] memory values, string[] memory signatures, bytes[] memory calldatas) {\n        Proposal storage p = proposals[proposalId];\n        return (p.targets, p.values, p.signatures, p.calldatas);\n    }\n\n    function getReceipt(uint proposalId, address voter) public view returns (Receipt memory) {\n        return proposals[proposalId].receipts[voter];\n    }\n\n    function state(uint proposalId) public view returns (ProposalState) {\n        require(proposalCount >= proposalId && proposalId > 0, \"Governor::state: invalid proposal id\");\n        Proposal storage proposal = proposals[proposalId];\n        if (proposal.canceled) {\n            return ProposalState.Canceled;\n        } else if (block.number <= proposal.startBlock) {\n            return ProposalState.Pending;\n        } else if (block.number <= proposal.endBlock) {\n            return ProposalState.Active;\n        } else if (proposal.forVotes <= proposal.againstVotes || proposal.forVotes < quorumVotes()) {\n            return ProposalState.Defeated;\n        } else if (proposal.eta == 0) {\n            return ProposalState.Succeeded;\n        } else if (proposal.executed) {\n            return ProposalState.Executed;\n        } else if (block.timestamp >= add256(proposal.eta, timelock.GRACE_PERIOD())) {\n            return ProposalState.Expired;\n        } else {\n            return ProposalState.Queued;\n        }\n    }\n\n    function castVote(uint proposalId, bool support) public {\n        return _castVote(msg.sender, proposalId, support);\n    }\n\n    function castVoteBySig(uint proposalId, bool support, uint8 v, bytes32 r, bytes32 s) public {\n        bytes32 domainSeparator = keccak256(abi.encode(DOMAIN_TYPEHASH, keccak256(bytes(name)), getChainId(), address(this)));\n        bytes32 structHash = keccak256(abi.encode(BALLOT_TYPEHASH, proposalId, support));\n        bytes32 digest = keccak256(abi.encodePacked(\"\\x19\\x01\", domainSeparator, structHash));\n        address signatory = ecrecover(digest, v, r, s);\n        require(signatory != address(0), \"Governor::castVoteBySig: invalid signature\");\n        return _castVote(signatory, proposalId, support);\n    }\n\n    function _castVote(address voter, uint proposalId, bool support) internal {\n        require(state(proposalId) == ProposalState.Active, \"Governor::_castVote: voting is closed\");\n        Proposal storage proposal = proposals[proposalId];\n        Receipt storage receipt = proposal.receipts[voter];\n        require(receipt.hasVoted == false, \"Governor::_castVote: voter already voted\");\n        uint96 votes = syx.getPriorVotes(voter, proposal.startBlock);\n\n        if (support) {\n            proposal.forVotes = add256(proposal.forVotes, votes);\n        } else {\n            proposal.againstVotes = add256(proposal.againstVotes, votes);\n        }\n\n        receipt.hasVoted = true;\n        receipt.support = support;\n        receipt.votes = votes;\n\n        emit VoteCast(voter, proposalId, support, votes);\n    }\n\n    function __acceptAdmin() public {\n        require(msg.sender == guardian, \"Governor::__acceptAdmin: sender must be gov guardian\");\n        timelock.acceptAdmin();\n    }\n\n    function __abdicate() public {\n        require(msg.sender == guardian, \"Governor::__abdicate: sender must be gov guardian\");\n        guardian = address(0);\n    }\n\n    function __queueSetTimelockPendingAdmin(address newPendingAdmin, uint eta) public {\n        require(msg.sender == guardian, \"Governor::__queueSetTimelockPendingAdmin: sender must be gov guardian\");\n        timelock.queueTransaction(address(timelock), 0, \"setPendingAdmin(address)\", abi.encode(newPendingAdmin), eta);\n    }\n\n    function __executeSetTimelockPendingAdmin(address newPendingAdmin, uint eta) public {\n        require(msg.sender == guardian, \"Governor::__executeSetTimelockPendingAdmin: sender must be gov guardian\");\n        timelock.executeTransaction(address(timelock), 0, \"setPendingAdmin(address)\", abi.encode(newPendingAdmin), eta);\n    }\n\n    function add256(uint256 a, uint256 b) internal pure returns (uint) {\n        uint c = a + b;\n        require(c >= a, \"addition overflow\");\n        return c;\n    }\n\n    function sub256(uint256 a, uint256 b) internal pure returns (uint) {\n        require(b <= a, \"subtraction underflow\");\n        return a - b;\n    }\n\n    function getChainId() internal pure returns (uint) {\n        uint chainId;\n        assembly { chainId := chainid() }\n        return chainId;\n    }\n}\n\ninterface TimelockInterface {\n    function delay() external view returns (uint);\n    function GRACE_PERIOD() external view returns (uint);\n    function acceptAdmin() external;\n    function queuedTransactions(bytes32 hash) external view returns (bool);\n    function queueTransaction(address target, uint value, string calldata signature, bytes calldata data, uint eta) external returns (bytes32);\n    function cancelTransaction(address target, uint value, string calldata signature, bytes calldata data, uint eta) external;\n    function executeTransaction(address target, uint value, string calldata signature, bytes calldata data, uint eta) external payable returns (bytes memory);\n}\n\ninterface SyxInterface {\n    function getPriorVotes(address account, uint blockNumber) external view returns (uint96);\n    function totalSupply() external view returns (uint256);\n}\n",
  "sourcePath": "/Users/twy/Projects/symblox-yield-farming/contracts/Governor.sol",
  "compiler": {
    "name": "solc",
    "version": "0.5.17+commit.d19bba13.Emscripten.clang"
  },
  "schemaVersion": "3.0.19",
  "updatedAt": "2020-10-20T12:43:06.559Z",
  "devdoc": {
    "methods": {}
  },
  "userdoc": {
    "methods": {
      "proposalMaxOperations()": {
        "notice": "The maximum number of actions that can be included in a proposal"
      },
      "proposalThreshold()": {
        "notice": "The number of votes required in order for a voter to become a proposer"
      },
      "quorumVotes()": {
        "notice": "The number of votes in support of a proposal required in order for a quorum to be reached and for a vote to succeed"
      },
      "votingDelay()": {
        "notice": "The delay before voting on a proposal may take place, once proposed"
      },
      "votingPeriod()": {
        "notice": "The duration of voting on a proposal, in blocks"
      }
    }
  }
}